{
  "contractName": "ShipmentManagement",
  "abi": [
    {
      "inputs": [
        {
          "internalType": "string",
          "name": "productName",
          "type": "string"
        },
        {
          "internalType": "string",
          "name": "description",
          "type": "string"
        },
        {
          "internalType": "string",
          "name": "origin",
          "type": "string"
        },
        {
          "internalType": "string",
          "name": "destination",
          "type": "string"
        },
        {
          "internalType": "string",
          "name": "deliveryDate",
          "type": "string"
        },
        {
          "internalType": "uint256",
          "name": "units",
          "type": "uint256"
        },
        {
          "internalType": "uint256",
          "name": "weight",
          "type": "uint256"
        }
      ],
      "name": "createShipment",
      "outputs": [
        {
          "internalType": "uint256",
          "name": "",
          "type": "uint256"
        },
        {
          "internalType": "address",
          "name": "",
          "type": "address"
        },
        {
          "internalType": "string",
          "name": "",
          "type": "string"
        }
      ],
      "stateMutability": "nonpayable",
      "type": "function"
    },
    {
      "inputs": [
        {
          "internalType": "uint256",
          "name": "shipmentId",
          "type": "uint256"
        },
        {
          "internalType": "address",
          "name": "newShipmentOwner",
          "type": "address"
        },
        {
          "internalType": "enum ShipmentManagement.State",
          "name": "newState",
          "type": "uint8"
        },
        {
          "internalType": "string",
          "name": "location",
          "type": "string"
        },
        {
          "internalType": "string",
          "name": "transferNotes",
          "type": "string"
        }
      ],
      "name": "shipmentTransfer",
      "outputs": [
        {
          "internalType": "uint256",
          "name": "",
          "type": "uint256"
        },
        {
          "internalType": "enum ShipmentManagement.State",
          "name": "",
          "type": "uint8"
        }
      ],
      "stateMutability": "nonpayable",
      "type": "function"
    },
    {
      "inputs": [
        {
          "internalType": "uint256",
          "name": "shipmentId",
          "type": "uint256"
        }
      ],
      "name": "getShipment",
      "outputs": [
        {
          "internalType": "uint256",
          "name": "id",
          "type": "uint256"
        },
        {
          "internalType": "string",
          "name": "name",
          "type": "string"
        },
        {
          "internalType": "string",
          "name": "description",
          "type": "string"
        },
        {
          "internalType": "string",
          "name": "origin",
          "type": "string"
        },
        {
          "internalType": "string",
          "name": "destination",
          "type": "string"
        },
        {
          "internalType": "string",
          "name": "deliveryDate",
          "type": "string"
        },
        {
          "internalType": "uint256",
          "name": "units",
          "type": "uint256"
        },
        {
          "internalType": "uint256",
          "name": "weight",
          "type": "uint256"
        },
        {
          "internalType": "uint256",
          "name": "currentState",
          "type": "uint256"
        },
        {
          "internalType": "address",
          "name": "currentOwner",
          "type": "address"
        }
      ],
      "stateMutability": "view",
      "type": "function"
    },
    {
      "inputs": [
        {
          "internalType": "uint256",
          "name": "shipmentId",
          "type": "uint256"
        }
      ],
      "name": "getTransfers",
      "outputs": [
        {
          "components": [
            {
              "internalType": "uint256",
              "name": "id",
              "type": "uint256"
            },
            {
              "internalType": "uint256",
              "name": "shipmentId",
              "type": "uint256"
            },
            {
              "internalType": "uint256",
              "name": "timestamp",
              "type": "uint256"
            },
            {
              "internalType": "enum ShipmentManagement.State",
              "name": "newState",
              "type": "uint8"
            },
            {
              "internalType": "string",
              "name": "location",
              "type": "string"
            },
            {
              "internalType": "address",
              "name": "newShipmentOwner",
              "type": "address"
            },
            {
              "internalType": "string",
              "name": "transferNotes",
              "type": "string"
            }
          ],
          "internalType": "struct ShipmentManagement.Transfer[]",
          "name": "",
          "type": "tuple[]"
        }
      ],
      "stateMutability": "view",
      "type": "function"
    },
    {
      "inputs": [],
      "name": "getNextShipmentId",
      "outputs": [
        {
          "internalType": "uint256",
          "name": "",
          "type": "uint256"
        }
      ],
      "stateMutability": "view",
      "type": "function"
    },
    {
      "inputs": [],
      "name": "getNextTransferId",
      "outputs": [
        {
          "internalType": "uint256",
          "name": "",
          "type": "uint256"
        }
      ],
      "stateMutability": "view",
      "type": "function"
    }
  ],
  "bytecode": "0x608060405260016000556001805534801561001957600080fd5b50611a0c806100296000396000f3fe608060405234801561001057600080fd5b50600436106100625760003560e01c80630475811114610067578063092b374014610085578063a896fe45146100be578063b465a0f2146100ef578063da9b34101461010d578063fad8919f1461013d575b600080fd5b61006f61016f565b60405161007c9190610e33565b60405180910390f35b61009f600480360381019061009a9190610e8e565b610179565b6040516100b59a99989796959493929190610f95565b60405180910390f35b6100d860048036038101906100d391906111da565b610573565b6040516100e6929190611304565b60405180910390f35b6100f7610837565b6040516101049190610e33565b60405180910390f35b61012760048036038101906101229190610e8e565b610840565b6040516101349190611509565b60405180910390f35b6101576004803603810190610152919061152b565b610b0e565b60405161016693929190611659565b60405180910390f35b6000600154905090565b600060608060608060606000806000808a600081116101cd576040517f08c379a00000000000000000000000000000000000000000000000000000000081526004016101c490611709565b60405180910390fd5b6000548110610211576040517f08c379a000000000000000000000000000000000000000000000000000000000815260040161020890611775565b60405180910390fd5b6000600260008e8152602001908152602001600020905080600001548160010182600201836003018460040185600501866006015487600701548860080160009054906101000a900460ff16600381111561026f5761026e61128d565b5b8960080160019054906101000a900473ffffffffffffffffffffffffffffffffffffffff168880546102a0906117c4565b80601f01602080910402602001604051908101604052809291908181526020018280546102cc906117c4565b80156103195780601f106102ee57610100808354040283529160200191610319565b820191906000526020600020905b8154815290600101906020018083116102fc57829003601f168201915b5050505050985087805461032c906117c4565b80601f0160208091040260200160405190810160405280929190818152602001828054610358906117c4565b80156103a55780601f1061037a576101008083540402835291602001916103a5565b820191906000526020600020905b81548152906001019060200180831161038857829003601f168201915b505050505097508680546103b8906117c4565b80601f01602080910402602001604051908101604052809291908181526020018280546103e4906117c4565b80156104315780601f1061040657610100808354040283529160200191610431565b820191906000526020600020905b81548152906001019060200180831161041457829003601f168201915b50505050509650858054610444906117c4565b80601f0160208091040260200160405190810160405280929190818152602001828054610470906117c4565b80156104bd5780601f10610492576101008083540402835291602001916104bd565b820191906000526020600020905b8154815290600101906020018083116104a057829003601f168201915b505050505095508480546104d0906117c4565b80601f01602080910402602001604051908101604052809291908181526020018280546104fc906117c4565b80156105495780601f1061051e57610100808354040283529160200191610549565b820191906000526020600020905b81548152906001019060200180831161052c57829003601f168201915b505050505094509b509b509b509b509b509b509b509b509b509b5050509193959799509193959799565b600080863373ffffffffffffffffffffffffffffffffffffffff166002600083815260200190815260200160002060080160019054906101000a900473ffffffffffffffffffffffffffffffffffffffff1673ffffffffffffffffffffffffffffffffffffffff161461061b576040517f08c379a000000000000000000000000000000000000000000000000000000000815260040161061290611867565b60405180910390fd5b6000600260008a81526020019081526020016000209050878160080160016101000a81548173ffffffffffffffffffffffffffffffffffffffff021916908373ffffffffffffffffffffffffffffffffffffffff160217905550868160080160006101000a81548160ff0219169083600381111561069c5761069b61128d565b5b02179055506000600160008154809291906106b6906118b6565b919050559050600360008b81526020019081526020016000206040518060e001604052808381526020018c81526020014281526020018a60038111156106ff576106fe61128d565b5b81526020018981526020018b73ffffffffffffffffffffffffffffffffffffffff16815260200188815250908060018154018082558091505060019003906000526020600020906007020160009091909190915060008201518160000155602082015181600101556040820151816002015560608201518160030160006101000a81548160ff0219169083600381111561079c5761079b61128d565b5b021790555060808201518160040190805190602001906107bd929190610d77565b5060a08201518160050160006101000a81548173ffffffffffffffffffffffffffffffffffffffff021916908373ffffffffffffffffffffffffffffffffffffffff16021790555060c0820151816006019080519060200190610821929190610d77565b5050508988945094505050509550959350505050565b60008054905090565b60608160008111610886576040517f08c379a000000000000000000000000000000000000000000000000000000000815260040161087d90611709565b60405180910390fd5b60005481106108ca576040517f08c379a00000000000000000000000000000000000000000000000000000000081526004016108c190611775565b60405180910390fd5b60036000848152602001908152602001600020805480602002602001604051908101604052809291908181526020016000905b82821015610b0257838290600052602060002090600702016040518060e00160405290816000820154815260200160018201548152602001600282015481526020016003820160009054906101000a900460ff1660038111156109635761096261128d565b5b60038111156109755761097461128d565b5b8152602001600482018054610989906117c4565b80601f01602080910402602001604051908101604052809291908181526020018280546109b5906117c4565b8015610a025780601f106109d757610100808354040283529160200191610a02565b820191906000526020600020905b8154815290600101906020018083116109e557829003601f168201915b505050505081526020016005820160009054906101000a900473ffffffffffffffffffffffffffffffffffffffff1673ffffffffffffffffffffffffffffffffffffffff1673ffffffffffffffffffffffffffffffffffffffff168152602001600682018054610a71906117c4565b80601f0160208091040260200160405190810160405280929190818152602001828054610a9d906117c4565b8015610aea5780601f10610abf57610100808354040283529160200191610aea565b820191906000526020600020905b815481529060010190602001808311610acd57829003601f168201915b505050505081525050815260200190600101906108fd565b50505050915050919050565b600080606060008511610b56576040517f08c379a0000000000000000000000000000000000000000000000000000000008152600401610b4d9061194a565b60405180910390fd5b60008411610b99576040517f08c379a0000000000000000000000000000000000000000000000000000000008152600401610b90906119b6565b60405180910390fd5b6000806000815480929190610bad906118b6565b9190505590506040518061014001604052808281526020018c81526020018b81526020018a815260200189815260200188815260200187815260200186815260200160006003811115610c0357610c0261128d565b5b81526020013373ffffffffffffffffffffffffffffffffffffffff1681525060026000838152602001908152602001600020600082015181600001556020820151816001019080519060200190610c5b929190610d77565b506040820151816002019080519060200190610c78929190610d77565b506060820151816003019080519060200190610c95929190610d77565b506080820151816004019080519060200190610cb2929190610d77565b5060a0820151816005019080519060200190610ccf929190610d77565b5060c0820151816006015560e082015181600701556101008201518160080160006101000a81548160ff02191690836003811115610d1057610d0f61128d565b5b02179055506101208201518160080160016101000a81548173ffffffffffffffffffffffffffffffffffffffff021916908373ffffffffffffffffffffffffffffffffffffffff160217905550905050803388935093509350509750975097945050505050565b828054610d83906117c4565b90600052602060002090601f016020900481019282610da55760008555610dec565b82601f10610dbe57805160ff1916838001178555610dec565b82800160010185558215610dec579182015b82811115610deb578251825591602001919060010190610dd0565b5b509050610df99190610dfd565b5090565b5b80821115610e16576000816000905550600101610dfe565b5090565b6000819050919050565b610e2d81610e1a565b82525050565b6000602082019050610e486000830184610e24565b92915050565b6000604051905090565b600080fd5b600080fd5b610e6b81610e1a565b8114610e7657600080fd5b50565b600081359050610e8881610e62565b92915050565b600060208284031215610ea457610ea3610e58565b5b6000610eb284828501610e79565b91505092915050565b600081519050919050565b600082825260208201905092915050565b60005b83811015610ef5578082015181840152602081019050610eda565b83811115610f04576000848401525b50505050565b6000601f19601f8301169050919050565b6000610f2682610ebb565b610f308185610ec6565b9350610f40818560208601610ed7565b610f4981610f0a565b840191505092915050565b600073ffffffffffffffffffffffffffffffffffffffff82169050919050565b6000610f7f82610f54565b9050919050565b610f8f81610f74565b82525050565b600061014082019050610fab600083018d610e24565b8181036020830152610fbd818c610f1b565b90508181036040830152610fd1818b610f1b565b90508181036060830152610fe5818a610f1b565b90508181036080830152610ff98189610f1b565b905081810360a083015261100d8188610f1b565b905061101c60c0830187610e24565b61102960e0830186610e24565b611037610100830185610e24565b611045610120830184610f86565b9b9a5050505050505050505050565b61105d81610f74565b811461106857600080fd5b50565b60008135905061107a81611054565b92915050565b6004811061108d57600080fd5b50565b60008135905061109f81611080565b92915050565b600080fd5b600080fd5b7f4e487b7100000000000000000000000000000000000000000000000000000000600052604160045260246000fd5b6110e782610f0a565b810181811067ffffffffffffffff82111715611106576111056110af565b5b80604052505050565b6000611119610e4e565b905061112582826110de565b919050565b600067ffffffffffffffff821115611145576111446110af565b5b61114e82610f0a565b9050602081019050919050565b82818337600083830152505050565b600061117d6111788461112a565b61110f565b905082815260208101848484011115611199576111986110aa565b5b6111a484828561115b565b509392505050565b600082601f8301126111c1576111c06110a5565b5b81356111d184826020860161116a565b91505092915050565b600080600080600060a086880312156111f6576111f5610e58565b5b600061120488828901610e79565b95505060206112158882890161106b565b945050604061122688828901611090565b935050606086013567ffffffffffffffff81111561124757611246610e5d565b5b611253888289016111ac565b925050608086013567ffffffffffffffff81111561127457611273610e5d565b5b611280888289016111ac565b9150509295509295909350565b7f4e487b7100000000000000000000000000000000000000000000000000000000600052602160045260246000fd5b600481106112cd576112cc61128d565b5b50565b60008190506112de826112bc565b919050565b60006112ee826112d0565b9050919050565b6112fe816112e3565b82525050565b60006040820190506113196000830185610e24565b61132660208301846112f5565b9392505050565b600081519050919050565b600082825260208201905092915050565b6000819050602082019050919050565b61136281610e1a565b82525050565b611371816112e3565b82525050565b600082825260208201905092915050565b600061139382610ebb565b61139d8185611377565b93506113ad818560208601610ed7565b6113b681610f0a565b840191505092915050565b6113ca81610f74565b82525050565b600060e0830160008301516113e86000860182611359565b5060208301516113fb6020860182611359565b50604083015161140e6040860182611359565b5060608301516114216060860182611368565b50608083015184820360808601526114398282611388565b91505060a083015161144e60a08601826113c1565b5060c083015184820360c08601526114668282611388565b9150508091505092915050565b600061147f83836113d0565b905092915050565b6000602082019050919050565b600061149f8261132d565b6114a98185611338565b9350836020820285016114bb85611349565b8060005b858110156114f757848403895281516114d88582611473565b94506114e383611487565b925060208a019950506001810190506114bf565b50829750879550505050505092915050565b600060208201905081810360008301526115238184611494565b905092915050565b600080600080600080600060e0888a03121561154a57611549610e58565b5b600088013567ffffffffffffffff81111561156857611567610e5d565b5b6115748a828b016111ac565b975050602088013567ffffffffffffffff81111561159557611594610e5d565b5b6115a18a828b016111ac565b965050604088013567ffffffffffffffff8111156115c2576115c1610e5d565b5b6115ce8a828b016111ac565b955050606088013567ffffffffffffffff8111156115ef576115ee610e5d565b5b6115fb8a828b016111ac565b945050608088013567ffffffffffffffff81111561161c5761161b610e5d565b5b6116288a828b016111ac565b93505060a06116398a828b01610e79565b92505060c061164a8a828b01610e79565b91505092959891949750929550565b600060608201905061166e6000830186610e24565b61167b6020830185610f86565b818103604083015261168d8184610f1b565b9050949350505050565b7f536869706d656e74204944206d7573742062652067726561746572207468616e60008201527f20302e0000000000000000000000000000000000000000000000000000000000602082015250565b60006116f3602383610ec6565b91506116fe82611697565b604082019050919050565b60006020820190508181036000830152611722816116e6565b9050919050565b7f536869706d656e7420646f6573206e6f742065786973742e0000000000000000600082015250565b600061175f601883610ec6565b915061176a82611729565b602082019050919050565b6000602082019050818103600083015261178e81611752565b9050919050565b7f4e487b7100000000000000000000000000000000000000000000000000000000600052602260045260246000fd5b600060028204905060018216806117dc57607f821691505b6020821081036117ef576117ee611795565b5b50919050565b7f4f6e6c79207468652063757272656e74206f776e65722063616e20706572666f60008201527f726d207468697320616374696f6e2e0000000000000000000000000000000000602082015250565b6000611851602f83610ec6565b915061185c826117f5565b604082019050919050565b6000602082019050818103600083015261188081611844565b9050919050565b7f4e487b7100000000000000000000000000000000000000000000000000000000600052601160045260246000fd5b60006118c182610e1a565b91507fffffffffffffffffffffffffffffffffffffffffffffffffffffffffffffffff82036118f3576118f2611887565b5b600182019050919050565b7f556e697473206d7573742062652067726561746572207468616e20302e000000600082015250565b6000611934601d83610ec6565b915061193f826118fe565b602082019050919050565b6000602082019050818103600083015261196381611927565b9050919050565b7f576569676874206d7573742062652067726561746572207468616e20302e0000600082015250565b60006119a0601e83610ec6565b91506119ab8261196a565b602082019050919050565b600060208201905081810360008301526119cf81611993565b905091905056fea26469706673582212203e3fe2e0ca9970c2a2d1b927c13e512298542e2c75cc47fbf26afce0236ea24964736f6c634300080d0033",
  "immutableReferences": {},
  "source": "// SPDX-License-Identifier: MIT\r\npragma solidity ^0.8.0;\r\n\r\ncontract ShipmentManagement {\r\n    enum State { CREATED, IN_TRANSIT, STORED, DELIVERED }\r\n\r\n    struct Shipment {\r\n        uint256 id;\r\n        string name;\r\n        string description;\r\n        string origin;\r\n        string destination;\r\n        string deliveryDate;\r\n        uint256 units;\r\n        uint256 weight;\r\n        State currentState;\r\n        address currentOwner;\r\n    }\r\n\r\n    struct Transfer {\r\n        uint256 id;\r\n        uint256 shipmentId;\r\n        uint256 timestamp;\r\n        State newState;\r\n        string location;\r\n        address newShipmentOwner;\r\n        string transferNotes;\r\n    }\r\n\r\n    uint256 private nextShipmentId = 1;\r\n    uint256 private nextTransferId = 1;\r\n\r\n    mapping(uint256 => Shipment) private shipments;\r\n    mapping(uint256 => Transfer[]) private transfersByShipment;\r\n\r\n    modifier onlyOwner(uint256 shipmentId) {\r\n        require(shipments[shipmentId].currentOwner == msg.sender, \"Only the current owner can perform this action.\");\r\n        _;\r\n    }\r\n\r\n    modifier exists(uint256 shipmentId) {\r\n        require(shipmentId > 0, \"Shipment ID must be greater than 0.\");\r\n        require(shipmentId < nextShipmentId, \"Shipment does not exist.\");\r\n        _;\r\n    }\r\n\r\n    function createShipment(\r\n        string memory productName,\r\n        string memory description,\r\n        string memory origin,\r\n        string memory destination,\r\n        string memory deliveryDate,\r\n        uint256 units,\r\n        uint256 weight\r\n    ) public returns (uint256, address, string memory) {\r\n        require(units > 0, \"Units must be greater than 0.\");\r\n        require(weight > 0, \"Weight must be greater than 0.\");\r\n        \r\n        uint256 newShipmentId = nextShipmentId++;\r\n        shipments[newShipmentId] = Shipment({\r\n            id: newShipmentId,\r\n            name: productName,\r\n            description: description,\r\n            origin: origin,\r\n            destination: destination,\r\n            deliveryDate: deliveryDate,\r\n            units: units,\r\n            weight: weight,\r\n            currentState: State.CREATED,\r\n            currentOwner: msg.sender\r\n        });\r\n\r\n        return (newShipmentId, msg.sender, deliveryDate);\r\n    }\r\n\r\n    function shipmentTransfer(\r\n        uint256 shipmentId,\r\n        address newShipmentOwner,\r\n        State newState,\r\n        string memory location,\r\n        string memory transferNotes\r\n    ) public onlyOwner(shipmentId) returns (uint256, State) {\r\n        Shipment storage shipment = shipments[shipmentId];\r\n        \r\n        shipment.currentOwner = newShipmentOwner;\r\n        shipment.currentState = newState;\r\n\r\n        uint256 transferId = nextTransferId++;\r\n        transfersByShipment[shipmentId].push(Transfer({\r\n            id: transferId,\r\n            shipmentId: shipmentId,\r\n            timestamp: block.timestamp,\r\n            newState: newState,\r\n            location: location,\r\n            newShipmentOwner: newShipmentOwner,\r\n            transferNotes: transferNotes\r\n        }));\r\n\r\n        return (shipmentId, newState);\r\n    }\r\n\r\n    function getShipment(uint256 shipmentId) public view exists(shipmentId) \r\n        returns (\r\n            uint256 id, \r\n            string memory name, \r\n            string memory description, \r\n            string memory origin, \r\n            string memory destination, \r\n            string memory deliveryDate, \r\n            uint256 units, \r\n            uint256 weight, \r\n            uint256 currentState, \r\n            address currentOwner\r\n        ) \r\n    {    \r\n        Shipment storage shipment = shipments[shipmentId];\r\n\r\n        return (\r\n            shipment.id,\r\n            shipment.name,\r\n            shipment.description,\r\n            shipment.origin,\r\n            shipment.destination,\r\n            shipment.deliveryDate,\r\n            shipment.units,\r\n            shipment.weight,\r\n            uint256(shipment.currentState),\r\n            shipment.currentOwner\r\n        );\r\n    }\r\n\r\n    function getTransfers(uint256 shipmentId) public view exists(shipmentId) returns (Transfer[] memory) {\r\n        return transfersByShipment[shipmentId];\r\n    }\r\n\r\n    function getNextShipmentId() public view returns (uint256) {\r\n        return nextShipmentId;\r\n    }\r\n\r\n    function getNextTransferId() public view returns (uint256) {\r\n        return nextTransferId;\r\n    }\r\n}\r\n",
  "sourcePath": "C:\\Users\\Usuario\\OneDrive\\Documentos\\GitHub\\blocked-supply\\blocked-supply-truffle\\contracts\\ShipmentManagement.sol",
  "compiler": {
    "name": "solc",
    "version": "0.8.13+commit.abaa5c0e.Emscripten.clang"
  },
  "schemaVersion": "3.4.16",
  "updatedAt": "2025-04-15T10:12:08.419Z",
  "devdoc": {
    "kind": "dev",
    "methods": {},
    "version": 1
  },
  "userdoc": {
    "kind": "user",
    "methods": {},
    "version": 1
  }
}